{
  "_format": "hh-sol-artifact-1",
  "contractName": "ComplexRewarderTime",
  "sourceName": "contracts/ComplexRewarder.sol",
  "abi": [
    {
      "inputs": [
        {
          "internalType": "contract IERC20",
          "name": "_rewardToken",
          "type": "address"
        },
        {
          "internalType": "uint256",
          "name": "_rewardPerSecond",
          "type": "uint256"
        },
        {
          "internalType": "address",
          "name": "_MASTERCHEF_V2",
          "type": "address"
        }
      ],
      "stateMutability": "nonpayable",
      "type": "constructor"
    },
    {
      "anonymous": false,
      "inputs": [
        {
          "indexed": false,
          "internalType": "address",
          "name": "_tokenAddress",
          "type": "address"
        },
        {
          "indexed": false,
          "internalType": "uint256",
          "name": "_amt",
          "type": "uint256"
        }
      ],
      "name": "AdminTokenRecovery",
      "type": "event"
    },
    {
      "anonymous": false,
      "inputs": [],
      "name": "LogInit",
      "type": "event"
    },
    {
      "anonymous": false,
      "inputs": [
        {
          "indexed": true,
          "internalType": "address",
          "name": "user",
          "type": "address"
        },
        {
          "indexed": true,
          "internalType": "uint256",
          "name": "pid",
          "type": "uint256"
        },
        {
          "indexed": false,
          "internalType": "uint256",
          "name": "amount",
          "type": "uint256"
        },
        {
          "indexed": true,
          "internalType": "address",
          "name": "to",
          "type": "address"
        }
      ],
      "name": "LogOnReward",
      "type": "event"
    },
    {
      "anonymous": false,
      "inputs": [
        {
          "indexed": true,
          "internalType": "uint256",
          "name": "pid",
          "type": "uint256"
        },
        {
          "indexed": false,
          "internalType": "uint256",
          "name": "allocPoint",
          "type": "uint256"
        }
      ],
      "name": "LogPoolAddition",
      "type": "event"
    },
    {
      "anonymous": false,
      "inputs": [
        {
          "indexed": false,
          "internalType": "uint256",
          "name": "rewardPerSecond",
          "type": "uint256"
        }
      ],
      "name": "LogRewardPerSecond",
      "type": "event"
    },
    {
      "anonymous": false,
      "inputs": [
        {
          "indexed": true,
          "internalType": "uint256",
          "name": "pid",
          "type": "uint256"
        },
        {
          "indexed": false,
          "internalType": "uint256",
          "name": "allocPoint",
          "type": "uint256"
        }
      ],
      "name": "LogSetPool",
      "type": "event"
    },
    {
      "anonymous": false,
      "inputs": [
        {
          "indexed": true,
          "internalType": "uint256",
          "name": "pid",
          "type": "uint256"
        },
        {
          "indexed": false,
          "internalType": "uint256",
          "name": "lastRewardTime",
          "type": "uint256"
        },
        {
          "indexed": false,
          "internalType": "uint256",
          "name": "lpSupply",
          "type": "uint256"
        },
        {
          "indexed": false,
          "internalType": "uint256",
          "name": "accRewardPerShare",
          "type": "uint256"
        }
      ],
      "name": "LogUpdatePool",
      "type": "event"
    },
    {
      "anonymous": false,
      "inputs": [
        {
          "indexed": true,
          "internalType": "address",
          "name": "previousOwner",
          "type": "address"
        },
        {
          "indexed": true,
          "internalType": "address",
          "name": "newOwner",
          "type": "address"
        }
      ],
      "name": "OwnershipTransferred",
      "type": "event"
    },
    {
      "inputs": [
        {
          "internalType": "uint256",
          "name": "allocPoint",
          "type": "uint256"
        },
        {
          "internalType": "uint256",
          "name": "_pid",
          "type": "uint256"
        }
      ],
      "name": "add",
      "outputs": [],
      "stateMutability": "nonpayable",
      "type": "function"
    },
    {
      "inputs": [
        {
          "internalType": "uint256[]",
          "name": "pids",
          "type": "uint256[]"
        }
      ],
      "name": "massUpdatePools",
      "outputs": [],
      "stateMutability": "nonpayable",
      "type": "function"
    },
    {
      "inputs": [
        {
          "internalType": "uint256",
          "name": "pid",
          "type": "uint256"
        },
        {
          "internalType": "address",
          "name": "_user",
          "type": "address"
        },
        {
          "internalType": "address",
          "name": "to",
          "type": "address"
        },
        {
          "internalType": "uint256",
          "name": "",
          "type": "uint256"
        },
        {
          "internalType": "uint256",
          "name": "lpToken",
          "type": "uint256"
        }
      ],
      "name": "onReward",
      "outputs": [],
      "stateMutability": "nonpayable",
      "type": "function"
    },
    {
      "inputs": [],
      "name": "owner",
      "outputs": [
        {
          "internalType": "address",
          "name": "",
          "type": "address"
        }
      ],
      "stateMutability": "view",
      "type": "function"
    },
    {
      "inputs": [
        {
          "internalType": "uint256",
          "name": "_pid",
          "type": "uint256"
        },
        {
          "internalType": "address",
          "name": "_user",
          "type": "address"
        }
      ],
      "name": "pendingToken",
      "outputs": [
        {
          "internalType": "uint256",
          "name": "pending",
          "type": "uint256"
        }
      ],
      "stateMutability": "view",
      "type": "function"
    },
    {
      "inputs": [
        {
          "internalType": "uint256",
          "name": "pid",
          "type": "uint256"
        },
        {
          "internalType": "address",
          "name": "user",
          "type": "address"
        },
        {
          "internalType": "uint256",
          "name": "",
          "type": "uint256"
        }
      ],
      "name": "pendingTokens",
      "outputs": [
        {
          "internalType": "contract IERC20[]",
          "name": "rewardTokens",
          "type": "address[]"
        },
        {
          "internalType": "uint256[]",
          "name": "rewardAmounts",
          "type": "uint256[]"
        }
      ],
      "stateMutability": "view",
      "type": "function"
    },
    {
      "inputs": [
        {
          "internalType": "uint256",
          "name": "",
          "type": "uint256"
        }
      ],
      "name": "poolIds",
      "outputs": [
        {
          "internalType": "uint256",
          "name": "",
          "type": "uint256"
        }
      ],
      "stateMutability": "view",
      "type": "function"
    },
    {
      "inputs": [
        {
          "internalType": "uint256",
          "name": "",
          "type": "uint256"
        }
      ],
      "name": "poolInfo",
      "outputs": [
        {
          "internalType": "uint256",
          "name": "accRewardPerShare",
          "type": "uint256"
        },
        {
          "internalType": "uint256",
          "name": "lastRewardTime",
          "type": "uint256"
        },
        {
          "internalType": "uint256",
          "name": "allocPoint",
          "type": "uint256"
        }
      ],
      "stateMutability": "view",
      "type": "function"
    },
    {
      "inputs": [],
      "name": "poolLength",
      "outputs": [
        {
          "internalType": "uint256",
          "name": "pools",
          "type": "uint256"
        }
      ],
      "stateMutability": "view",
      "type": "function"
    },
    {
      "inputs": [
        {
          "internalType": "address",
          "name": "_tokenAddress",
          "type": "address"
        },
        {
          "internalType": "uint256",
          "name": "_amt",
          "type": "uint256"
        }
      ],
      "name": "recoverTokens",
      "outputs": [],
      "stateMutability": "nonpayable",
      "type": "function"
    },
    {
      "inputs": [],
      "name": "renounceOwnership",
      "outputs": [],
      "stateMutability": "nonpayable",
      "type": "function"
    },
    {
      "inputs": [],
      "name": "rewardPerSecond",
      "outputs": [
        {
          "internalType": "uint256",
          "name": "",
          "type": "uint256"
        }
      ],
      "stateMutability": "view",
      "type": "function"
    },
    {
      "inputs": [],
      "name": "rewardToken",
      "outputs": [
        {
          "internalType": "contract IERC20",
          "name": "",
          "type": "address"
        }
      ],
      "stateMutability": "view",
      "type": "function"
    },
    {
      "inputs": [
        {
          "internalType": "uint256",
          "name": "_pid",
          "type": "uint256"
        },
        {
          "internalType": "uint256",
          "name": "_allocPoint",
          "type": "uint256"
        }
      ],
      "name": "set",
      "outputs": [],
      "stateMutability": "nonpayable",
      "type": "function"
    },
    {
      "inputs": [
        {
          "internalType": "uint256",
          "name": "_rewardPerSecond",
          "type": "uint256"
        }
      ],
      "name": "setRewardPerSecond",
      "outputs": [],
      "stateMutability": "nonpayable",
      "type": "function"
    },
    {
      "inputs": [
        {
          "internalType": "address",
          "name": "newOwner",
          "type": "address"
        }
      ],
      "name": "transferOwnership",
      "outputs": [],
      "stateMutability": "nonpayable",
      "type": "function"
    },
    {
      "inputs": [
        {
          "internalType": "uint256",
          "name": "pid",
          "type": "uint256"
        }
      ],
      "name": "updatePool",
      "outputs": [
        {
          "components": [
            {
              "internalType": "uint256",
              "name": "accRewardPerShare",
              "type": "uint256"
            },
            {
              "internalType": "uint256",
              "name": "lastRewardTime",
              "type": "uint256"
            },
            {
              "internalType": "uint256",
              "name": "allocPoint",
              "type": "uint256"
            }
          ],
          "internalType": "struct ComplexRewarderTime.PoolInfo",
          "name": "pool",
          "type": "tuple"
        }
      ],
      "stateMutability": "nonpayable",
      "type": "function"
    },
    {
      "inputs": [
        {
          "internalType": "uint256",
          "name": "",
          "type": "uint256"
        },
        {
          "internalType": "address",
          "name": "",
          "type": "address"
        }
      ],
      "name": "userInfo",
      "outputs": [
        {
          "internalType": "uint256",
          "name": "amount",
          "type": "uint256"
        },
        {
          "internalType": "uint256",
          "name": "rewardDebt",
          "type": "uint256"
        }
      ],
      "stateMutability": "view",
      "type": "function"
    }
  ],
  "bytecode": "0x60c06040523480156200001157600080fd5b5060405162001c6838038062001c688339810160408190526200003491620000b5565b6200003f3362000065565b6001600160601b0319606093841b811660805260059290925590911b1660a05262000115565b600080546001600160a01b038381166001600160a01b0319831681178455604051919092169283917f8be0079c531659141344cd1fd0a4f28419497f9722a3daafe3b4186f6b6457e09190a35050565b600080600060608486031215620000ca578283fd5b8351620000d781620000fc565b602085015160408601519194509250620000f181620000fc565b809150509250925092565b6001600160a01b03811681146200011257600080fd5b50565b60805160601c60a05160601c611afd6200016b60003960008181610570015281816107dc0152818161089501528181610a670152610b3301526000818161033a015281816106ab01526110570152611afd6000f3fe608060405234801561001057600080fd5b50600436106101365760003560e01c806369883b4e116100b25780638f10369a11610081578063d63b3c4911610066578063d63b3c4914610301578063f2fde38b14610322578063f7c618c11461033557600080fd5b80638f10369a146102b157806393f1a40b146102ba57600080fd5b806369883b4e14610244578063715018a614610257578063771602f71461025f5780638da5cb5b1461027257600080fd5b806344af0fa71161010957806351eb05a6116100ee57806351eb05a6146101e957806357a5b58c1461021e57806366da58151461023157600080fd5b806344af0fa7146101c357806348e43af4146101d657600080fd5b8063069c9fae1461013b578063081e3eda146101505780631526fe27146101675780631ab06ee5146101b0575b600080fd5b61014e610149366004611690565b61035c565b005b6002545b6040519081526020015b60405180910390f35b610195610175366004611767565b600160208190526000918252604090912080549181015460029091015483565b6040805193845260208401929092529082015260600161015e565b61014e6101be36600461184e565b610456565b61014e6101d13660046117c6565b610558565b6101546101e4366004611797565b610752565b6101fc6101f7366004611767565b6109d5565b604080518251815260208084015190820152918101519082015260600161015e565b61014e61022c3660046116bb565b610ca3565b61014e61023f366004611767565b610d0e565b610154610252366004611767565b610dca565b61014e610deb565b61014e61026d36600461184e565b610e78565b60005473ffffffffffffffffffffffffffffffffffffffff165b60405173ffffffffffffffffffffffffffffffffffffffff909116815260200161015e565b61015460055481565b6102ec6102c8366004611797565b60036020908152600092835260408084209091529082529020805460019091015482565b6040805192835260208301919091520161015e565b61031461030f366004611817565b61102e565b60405161015e92919061188b565b61014e610330366004611674565b611155565b61028c7f000000000000000000000000000000000000000000000000000000000000000081565b60005473ffffffffffffffffffffffffffffffffffffffff1633146103e2576040517f08c379a000000000000000000000000000000000000000000000000000000000815260206004820181905260248201527f4f776e61626c653a2063616c6c6572206973206e6f7420746865206f776e657260448201526064015b60405180910390fd5b61040373ffffffffffffffffffffffffffffffffffffffff83163383611285565b6040805173ffffffffffffffffffffffffffffffffffffffff84168152602081018390527f74545154aac348a3eac92596bd1971957ca94795f4e954ec5f613b55fab78129910160405180910390a15050565b60005473ffffffffffffffffffffffffffffffffffffffff1633146104d7576040517f08c379a000000000000000000000000000000000000000000000000000000000815260206004820181905260248201527f4f776e61626c653a2063616c6c6572206973206e6f7420746865206f776e657260448201526064016103d9565b60008281526001602052604090206002015460045482916104f7916119fa565b610501919061196c565b600455600082815260016020526040908190206002018290555182907f942cc7e17a17c164bd977f32ab8c54265d5b9d481e4e352bf874f1e568874e7c9061054c9084815260200190565b60405180910390a25050565b3373ffffffffffffffffffffffffffffffffffffffff7f0000000000000000000000000000000000000000000000000000000000000000161461061d576040517f08c379a000000000000000000000000000000000000000000000000000000000815260206004820152602160248201527f4f6e6c79204d4356322063616e2063616c6c20746869732066756e6374696f6e60448201527f2e0000000000000000000000000000000000000000000000000000000000000060648201526084016103d9565b6000610628866109d5565b600087815260036020908152604080832073ffffffffffffffffffffffffffffffffffffffff8a1684529091528120805492935091156106d25760018201548351835464e8d4a510009161067b916119bd565b6106859190611984565b61068f91906119fa565b90506106d273ffffffffffffffffffffffffffffffffffffffff7f0000000000000000000000000000000000000000000000000000000000000000168783611285565b838255825164e8d4a51000906106e890866119bd565b6106f29190611984565b600183015560405181815273ffffffffffffffffffffffffffffffffffffffff808816918a918a16907f2ece88ca2bc08dd018db50e1d25a20bf1241e5fab1c396caa51f01a54bd2f75b9060200160405180910390a45050505050505050565b6000828152600160208181526040808420815160608101835281548152938101548484015260020154838201528584526003825280842073ffffffffffffffffffffffffffffffffffffffff86811686529252808420835191517f78ed5d1f00000000000000000000000000000000000000000000000000000000815260048101889052909285917f0000000000000000000000000000000000000000000000000000000000000000909116906378ed5d1f9060240160206040518083038186803b15801561082057600080fd5b505afa158015610834573d6000803e3d6000fd5b505050506040513d601f19601f82011682018060405250810190610858919061174b565b6040517f70a0823100000000000000000000000000000000000000000000000000000000815273ffffffffffffffffffffffffffffffffffffffff7f00000000000000000000000000000000000000000000000000000000000000008116600483015291909116906370a082319060240160206040518083038186803b1580156108e157600080fd5b505afa1580156108f5573d6000803e3d6000fd5b505050506040513d601f19601f82011682018060405250810190610919919061177f565b905083602001514211801561092d57508015155b1561099d57600084602001514261094491906119fa565b9050600060045486604001516005548461095e91906119bd565b61096891906119bd565b6109729190611984565b90508261098464e8d4a51000836119bd565b61098e9190611984565b610998908561196c565b935050505b6001830154835464e8d4a51000906109b69085906119bd565b6109c09190611984565b6109ca91906119fa565b979650505050505050565b6109f960405180606001604052806000815260200160008152602001600081525090565b5060008181526001602081815260409283902083516060810185528154815292810154918301829052600201549282019290925290421115610c9e576040517f78ed5d1f000000000000000000000000000000000000000000000000000000008152600481018390526000907f000000000000000000000000000000000000000000000000000000000000000073ffffffffffffffffffffffffffffffffffffffff16906378ed5d1f9060240160206040518083038186803b158015610abe57600080fd5b505afa158015610ad2573d6000803e3d6000fd5b505050506040513d601f19601f82011682018060405250810190610af6919061174b565b6040517f70a0823100000000000000000000000000000000000000000000000000000000815273ffffffffffffffffffffffffffffffffffffffff7f00000000000000000000000000000000000000000000000000000000000000008116600483015291909116906370a082319060240160206040518083038186803b158015610b7f57600080fd5b505afa158015610b93573d6000803e3d6000fd5b505050506040513d601f19601f82011682018060405250810190610bb7919061177f565b90508015610c2c576000826020015142610bd191906119fa565b90506000600454846040015160055484610beb91906119bd565b610bf591906119bd565b610bff9190611984565b905082610c1164e8d4a51000836119bd565b610c1b9190611984565b8451610c27919061196c565b845250505b426020838101918252600085815260018083526040918290208651808255945191810182905582870151600290910155815190815291820184905281019190915283907fcb7325664a4a3b7c7223eefc492a97ca4fdf94d46884621e5a8fae5a04b2b9d29060600160405180910390a2505b919050565b8060005b81811015610d0857610cf7848483818110610ceb577f4e487b7100000000000000000000000000000000000000000000000000000000600052603260045260246000fd5b905060200201356109d5565b50610d0181611a3d565b9050610ca7565b50505050565b60005473ffffffffffffffffffffffffffffffffffffffff163314610d8f576040517f08c379a000000000000000000000000000000000000000000000000000000000815260206004820181905260248201527f4f776e61626c653a2063616c6c6572206973206e6f7420746865206f776e657260448201526064016103d9565b60058190556040518181527fde89cb17ac7f58f94792b3e91e086ed85403819c24ceea882491f960ccb1a2789060200160405180910390a150565b60028181548110610dda57600080fd5b600091825260209091200154905081565b60005473ffffffffffffffffffffffffffffffffffffffff163314610e6c576040517f08c379a000000000000000000000000000000000000000000000000000000000815260206004820181905260248201527f4f776e61626c653a2063616c6c6572206973206e6f7420746865206f776e657260448201526064016103d9565b610e766000611317565b565b60005473ffffffffffffffffffffffffffffffffffffffff163314610ef9576040517f08c379a000000000000000000000000000000000000000000000000000000000815260206004820181905260248201527f4f776e61626c653a2063616c6c6572206973206e6f7420746865206f776e657260448201526064016103d9565b6000818152600160208190526040909120015415610f73576040517f08c379a000000000000000000000000000000000000000000000000000000000815260206004820152601360248201527f506f6f6c20616c7265616479206578697374730000000000000000000000000060448201526064016103d9565b6004544290610f8390849061196c565b60045560408051606081018252600080825260208083018581528385018881528784526001928390528584209451855590518483015551600293840155825490810183559190527f405787fa12a823e0f2b7631cc41b3ba8828b3321ca811111fa75cd3aa3bb5ace018390555182907f38410508059921573ab9ebdca2a5034be738d236366b8f32de4434ea95ed3c81906110219086815260200190565b60405180910390a2505050565b6040805160018082528183019092526060918291600091602080830190803683370190505090507f0000000000000000000000000000000000000000000000000000000000000000816000815181106110b0577f4e487b7100000000000000000000000000000000000000000000000000000000600052603260045260246000fd5b73ffffffffffffffffffffffffffffffffffffffff92909216602092830291909101909101526040805160018082528183019092526000918160200160208202803683370190505090506111048787610752565b8160008151811061113e577f4e487b7100000000000000000000000000000000000000000000000000000000600052603260045260246000fd5b602090810291909101015290969095509350505050565b60005473ffffffffffffffffffffffffffffffffffffffff1633146111d6576040517f08c379a000000000000000000000000000000000000000000000000000000000815260206004820181905260248201527f4f776e61626c653a2063616c6c6572206973206e6f7420746865206f776e657260448201526064016103d9565b73ffffffffffffffffffffffffffffffffffffffff8116611279576040517f08c379a000000000000000000000000000000000000000000000000000000000815260206004820152602660248201527f4f776e61626c653a206e6577206f776e657220697320746865207a65726f206160448201527f646472657373000000000000000000000000000000000000000000000000000060648201526084016103d9565b61128281611317565b50565b6040805173ffffffffffffffffffffffffffffffffffffffff8416602482015260448082018490528251808303909101815260649091019091526020810180517bffffffffffffffffffffffffffffffffffffffffffffffffffffffff167fa9059cbb0000000000000000000000000000000000000000000000000000000017905261131290849061138c565b505050565b6000805473ffffffffffffffffffffffffffffffffffffffff8381167fffffffffffffffffffffffff0000000000000000000000000000000000000000831681178455604051919092169283917f8be0079c531659141344cd1fd0a4f28419497f9722a3daafe3b4186f6b6457e09190a35050565b60006113ee826040518060400160405280602081526020017f5361666545524332303a206c6f772d6c6576656c2063616c6c206661696c65648152508573ffffffffffffffffffffffffffffffffffffffff166114989092919063ffffffff16565b805190915015611312578080602001905181019061140c919061172b565b611312576040517f08c379a000000000000000000000000000000000000000000000000000000000815260206004820152602a60248201527f5361666545524332303a204552433230206f7065726174696f6e20646964206e60448201527f6f7420737563636565640000000000000000000000000000000000000000000060648201526084016103d9565b60606114a784846000856114b1565b90505b9392505050565b606082471015611543576040517f08c379a000000000000000000000000000000000000000000000000000000000815260206004820152602660248201527f416464726573733a20696e73756666696369656e742062616c616e636520666f60448201527f722063616c6c000000000000000000000000000000000000000000000000000060648201526084016103d9565b843b6115ab576040517f08c379a000000000000000000000000000000000000000000000000000000000815260206004820152601d60248201527f416464726573733a2063616c6c20746f206e6f6e2d636f6e747261637400000060448201526064016103d9565b6000808673ffffffffffffffffffffffffffffffffffffffff1685876040516115d4919061186f565b60006040518083038185875af1925050503d8060008114611611576040519150601f19603f3d011682016040523d82523d6000602084013e611616565b606091505b50915091506109ca828286606083156116305750816114aa565b8251156116405782518084602001fd5b816040517f08c379a00000000000000000000000000000000000000000000000000000000081526004016103d9919061191b565b600060208284031215611685578081fd5b81356114aa81611aa5565b600080604083850312156116a2578081fd5b82356116ad81611aa5565b946020939093013593505050565b600080602083850312156116cd578182fd5b823567ffffffffffffffff808211156116e4578384fd5b818501915085601f8301126116f7578384fd5b813581811115611705578485fd5b8660208260051b8501011115611719578485fd5b60209290920196919550909350505050565b60006020828403121561173c578081fd5b815180151581146114aa578182fd5b60006020828403121561175c578081fd5b81516114aa81611aa5565b600060208284031215611778578081fd5b5035919050565b600060208284031215611790578081fd5b5051919050565b600080604083850312156117a9578182fd5b8235915060208301356117bb81611aa5565b809150509250929050565b600080600080600060a086880312156117dd578081fd5b8535945060208601356117ef81611aa5565b935060408601356117ff81611aa5565b94979396509394606081013594506080013592915050565b60008060006060848603121561182b578283fd5b83359250602084013561183d81611aa5565b929592945050506040919091013590565b60008060408385031215611860578182fd5b50508035926020909101359150565b60008251611881818460208701611a11565b9190910192915050565b604080825283519082018190526000906020906060840190828701845b828110156118da57815173ffffffffffffffffffffffffffffffffffffffff16845292840192908401906001016118a8565b50505083810382850152845180825285830191830190845b8181101561190e578351835292840192918401916001016118f2565b5090979650505050505050565b602081526000825180602084015261193a816040850160208701611a11565b601f017fffffffffffffffffffffffffffffffffffffffffffffffffffffffffffffffe0169190910160400192915050565b6000821982111561197f5761197f611a76565b500190565b6000826119b8577f4e487b710000000000000000000000000000000000000000000000000000000081526012600452602481fd5b500490565b6000817fffffffffffffffffffffffffffffffffffffffffffffffffffffffffffffffff04831182151516156119f5576119f5611a76565b500290565b600082821015611a0c57611a0c611a76565b500390565b60005b83811015611a2c578181015183820152602001611a14565b83811115610d085750506000910152565b60007fffffffffffffffffffffffffffffffffffffffffffffffffffffffffffffffff821415611a6f57611a6f611a76565b5060010190565b7f4e487b7100000000000000000000000000000000000000000000000000000000600052601160045260246000fd5b73ffffffffffffffffffffffffffffffffffffffff8116811461128257600080fdfea26469706673582212205bdf76fa7d41f157372f4d5f47c5824eb5a9c070770db25e04f14df74f03cbdf64736f6c63430008040033",
  "linkReferences": {},
  "deployedLinkReferences": {}
}